:020000040800F2
:10000000002800206D0300081103000817030008F2
:100010001D03000823030008290300080000000056
:100020000000000000000000000000002F03000896
:100030003B030008000000004703000853030008CA
:10004000B5030008B5030008B5030008B5030008B0
:10005000B5030008B5030008B5030008B5030008A0
:10006000B5030008B5030008B5030008B503000890
:10007000B5030008B5030008B5030008B503000880
:10008000B5030008B5030008B5030008B503000870
:10009000B5030008B5030008B5030008B503000860
:1000A000B5030008B5030008B5030008B503000850
:1000B000B5030008B503000800000000B503000800
:1000C000B50300080000000000000000B5030008B0
:1000D00000000000B5030008B503000800000000A0
:1000E000B5030008B5030008B503000800000000D0
:1000F0000000000000000000000000000000000000
:0C01000000000000000000005FF808F1A3
:10010C0010B5054C237833B9044B13B10448AFF345
:10011C0000800123237010BD14000020000000009B
:10012C00C411000808B5034B1BB103490348AFF3D6
:10013C00008008BD0000000018000020C411000859
:10014C0080B582B000AF00237B6000233B6000F0E1
:10015C002DF900F027F800F061F801210E4800F0AD
:10016C00E7FB0346012B09D10C4A7B6852F823307C
:10017C00DA430B4BDA6001233B60EEE73B68002B64
:10018C00EBD07B6801337B6000233B607B68022BE8
:10019C00E3D100237B60E0E7000C0140000000206D
:1001AC000008014080B590B000AF07F11803282279
:1001BC000021184600F0F8FF3B1D00221A605A601F
:1001CC009A60DA601A610223BB610123BB621023BF
:1001DC00FB6200237B6307F11803184600F0D8FB81
:1001EC000346002B01D000F065F80F237B60002341
:1001FC00BB600023FB6000233B6100237B613B1D44
:10020C000021184600F046FE0346002B01D000F0FA
:10021C0051F800BF4037BD4680BD000080B586B0A8
:10022C0000AF07F1080300221A605A609A60DA6086
:10023C001D4B9B691C4A43F0040393611A4B9B6949
:10024C0003F004037B607B68174B9B69164A43F0F1
:10025C0008039361144B9B6903F008033B603B68F4
:10026C0001227F21114800F07AFB7F23BB60012320
:10027C00FB6000233B6102237B6107F108031946F5
:10028C000A4800F0D9F90123BB600023FB6000236E
:10029C003B6107F108031946054800F0CDF900BF92
:1002AC001837BD4680BD00BF001002400008014059
:1002BC00000C014080B400AF72B600BFFEE7000036
:1002CC0080B483B000AF0E4B9B690D4A43F0010321
:1002DC0093610B4B9B6903F001037B607B68084BBC
:1002EC00DB69074A43F08053D361054BDB6903F0AC
:1002FC0080533B603B6800BF0C37BD4680BC7047E9
:10030C000010024080B400AFFEE780B400AFFEE7FF
:10031C0080B400AFFEE780B400AFFEE780B400AF5E
:10032C00FEE780B400AF00BFBD4680BC704780B410
:10033C0000AF00BFBD4680BC704780B400AF00BFAB
:10034C00BD4680BC704780B500AF00F075F800BFAB
:10035C0080BD80B400AF00BFBD4680BC70470000BC
:10036C000C480D490D4A002302E0D458C450043304
:10037C00C4188C42F9D30A4A0A4C002301E01360DA
:10038C000432A242FBD3FFF7E4FF00F0E9FEFFF7D3
:10039C00D7FE704700000020140000200412000853
:1003AC001400002034000020FEE7000080B500AFF0
:1003BC00084B1B68074A43F010031360032000F03E
:1003CC0007F90F2000F008F8FFF77AFF0023184612
:1003DC0080BD00BF0020024080B582B000AF7860C5
:1003EC00124B1A68124B1B7819464FF47A73B3FBF5
:1003FC00F1F3B2FBF3F3184600F011F90346002BAE
:10040C0001D001230EE07B680F2B0AD800227968FB
:10041C004FF0FF3000F0E7F8064A7B6813600023CA
:10042C0000E0012318460837BD4680BD08000020B7
:10043C00100000200C00002080B400AF054B1B788E
:10044C001A46054B1B681344034A136000BFBD4694
:10045C0080BC7047100000203000002080B400AF3A
:10046C00024B1B681846BD4680BC7047300000200C
:10047C0080B485B000AF78607B6803F00703FB6045
:10048C000C4BDB68BB60BA684FF6FF031340BB60D4
:10049C00FB681A02BB68134343F0BF6343F4003399
:1004AC00BB60044ABB68D36000BF1437BD4680BC38
:1004BC00704700BF00ED00E080B400AF044BDB6878
:1004CC001B0A03F007031846BD4680BC704700BFEB
:1004DC0000ED00E080B483B000AF03463960FB71DF
:1004EC0097F90730002B0ADB3B68DAB20C4997F915
:1004FC0007301201D2B20B4483F800230AE03B68A8
:10050C00DAB20849FB7903F00F03043B1201D2B2B3
:10051C000B441A7600BF0C37BD4680BC704700BF39
:10052C0000E100E000ED00E080B489B000AFF860BD
:10053C00B9607A60FB6803F00703FB61FB69C3F1E8
:10054C000703042B28BF0423BB61FB690433062B70
:10055C0002D9FB69033B00E000237B614FF0FF32C3
:10056C00BB6902FA03F3DA43BB681A407B699A4011
:10057C004FF0FF317B6901FA03F3D9437B680B40E1
:10058C00134318462437BD4680BC704780B582B0F3
:10059C0000AF78607B68013BB3F1807F01D301230E
:1005AC000FE00A4A7B68013B53600F214FF0FF308C
:1005BC00FFF790FF054B00229A60044B07221A604C
:1005CC00002318460837BD4680BD00BF10E000E090
:1005DC0080B582B000AF78607868FFF749FF00BF44
:1005EC000837BD4680BD80B586B000AF0346B96004
:1005FC007A60FB7300237B61FFF75EFF78617A689A
:10060C00B9687869FFF790FF024697F90F301146E9
:10061C001846FFF75FFF00BF1837BD4680BD80B599
:10062C0082B000AF78607868FFF7B0FF03461846D9
:10063C000837BD4680BD000080B48BB000AF786039
:10064C00396000237B6200233B6261E101227B6AFB
:10065C0002FA03F3FB613B681B68FA691340BB6148
:10066C00BA69FB699A4240F050813B685B68974AD3
:10067C0093425ED0954A934275D8954A934258D08E
:10068C00934A93426FD8934A934252D0914A9342E1
:10069C0069D8914A93424CD08F4A934263D88F4A7F
:1006AC00934246D08D4A93425DD8122B2AD8122BF6
:1006BC0059D801A252F823F03F0700081907000887
:1006CC002B0700086D070008730700087307000864
:1006DC007307000873070008730700087307000806
:1006EC0073070008730700087307000873070008F6
:1006FC007307000873070008730700082107000838
:10070C0035070008764A934213D02CE03B68DB682F
:10071C003B6229E03B68DB6804333B6224E03B68C6
:10072C00DB6808333B621FE03B68DB680C333B62E1
:10073C001AE03B689B68002B02D104233B6213E058
:10074C003B689B68012B05D108233B627B68FA69E7
:10075C001A6109E008233B627B68FA695A6103E07D
:10076C0000233B6200E000BFBB69FF2B01D87B6814
:10077C0001E07B6804337B61BB69FF2B02D87B6A89
:10078C009B0002E07B6A083B9B003B617B691A681B
:10079C000F213B6901FA03F3DB431A40396A3B69C9
:1007AC0001FA03F31A437B691A603B685B6803F038
:1007BC008053002B00F0A9804A4B9B69494A43F0B7
:1007CC0001039361474B9B6903F00103BB60BB685A
:1007DC00454A7B6A9B08023352F82330FB607B6AE4
:1007EC0003F003039B000F2202FA03F3DB43FA68C6
:1007FC001340FB607B683D4A93420DD07B683C4ABA
:10080C00934207D07B683B4A934201D1022304E018
:10081C00032302E0012300E000237A6A02F00302C2
:10082C0092009340FA681343FB602F497B6A9B0844
:10083C000233FA6841F823203B685B6803F4803389
:10084C00002B06D02C4B1A682B49BB6913430B6049
:10085C0006E0294B1A68BB69DB43274913400B6040
:10086C003B685B6803F40033002B06D0224B5A68BC
:10087C002149BB6913434B6006E01F4B5A68BB69A7
:10088C00DB431D4913404B603B685B6803F48013EA
:10089C00002B06D0184B9A681749BB6913438B6021
:1008AC0006E0154B9A68BB69DB43134913408B6018
:1008BC003B685B6803F40013002B1FD00E4BDA6807
:1008CC000D49BB691343CB601FE000BF0000321021
:1008DC000000311000002210000021100000121046
:1008EC0000001110001002400000014000080140FF
:1008FC00000C014000100140000401400B4BDA6871
:10090C00BB69DB4309491340CB607B6A01337B62D3
:10091C003B681A687B6A22FA03F3002B7FF496AECD
:10092C0000BF00BF2C37BD4680BC7047000401409F
:10093C0080B485B000AF78600B467B807B689A688A
:10094C007B881340002B02D00123FB7301E00023B2
:10095C00FB73FB7B18461437BD4680BC704780B4D4
:10096C0083B000AF78600B467B8013467B707B783E
:10097C00002B03D07A887B681A6103E07B881A0409
:10098C007B681A6100BF0C37BD4680BC7047000005
:10099C0080B586B000AF78607B68002B01D1012355
:1009AC0072E27B681B6803F00103002B00F0878068
:1009BC00924B5B6803F00C03042B0CD08F4B5B68E1
:1009CC0003F00C03082B12D18C4B5B6803F48033BF
:1009DC00B3F5803F0BD1894B1B6803F40033002B1C
:1009EC006CD07B685B68002B68D101234CE27B6880
:1009FC005B68B3F5803F06D1804B1B687F4A43F49C
:100A0C00803313602EE07B685B68002B0CD17B4B32
:100A1C001B687A4A23F480331360784B1B68774A3F
:100A2C0023F4802313601DE07B685B68B3F5A02F73
:100A3C000CD1724B1B68714A43F4802313606F4BCB
:100A4C001B686E4A43F4803313600BE06B4B1B68DE
:100A5C006A4A23F480331360684B1B68674A23F49B
:100A6C00802313607B685B68002B13D0FFF7F6FCC8
:100A7C00386108E0FFF7F2FC02463B69D31A642B9D
:100A8C0001D9032300E25D4B1B6803F40033002BF8
:100A9C00F0D014E0FFF7E2FC386108E0FFF7DEFC71
:100AAC0002463B69D31A642B01D90323ECE1534B67
:100ABC001B6803F40033002BF0D100E000BF7B680F
:100ACC001B6803F00203002B63D04C4B5B6803F0F4
:100ADC000C03002B0BD0494B5B6803F00C03082B69
:100AEC001CD1464B5B6803F48033002B16D1434B6F
:100AFC001B6803F00203002B05D07B681B69012BDC
:100B0C0001D00123C0E13D4B1B6823F0F8027B6848
:100B1C005B69DB00394913430B603AE07B681B6966
:100B2C00002B20D0364B01221A60FFF797FC38615E
:100B3C0008E0FFF793FC02463B69D31A022B01D95C
:100B4C000323A1E12D4B1B6803F00203002BF0D013
:100B5C002A4B1B6823F0F8027B685B69DB00274992
:100B6C0013430B6015E0264B00221A60FFF776FC4E
:100B7C00386108E0FFF772FC02463B69D31A022B7E
:100B8C0001D9032380E11D4B1B6803F00203002BEA
:100B9C00F0D17B681B6803F00803002B3AD07B680C
:100BAC009B69002B19D0174B01221A60FFF756FCDA
:100BBC00386108E0FFF752FC02463B69D31A022B5E
:100BCC0001D9032360E10D4B5B6A03F00203002B98
:100BDC00F0D0012000F0A6FA1CE00A4B00221A60AB
:100BEC00FFF73CFC38610FE0FFF738FC02463B692D
:100BFC00D31A022B08D9032346E100BF0010024090
:100C0C000000424280044242924B5B6A03F00203B2
:100C1C00002BE9D17B681B6803F00403002B00F068
:100C2C00A6800023FB758B4BDB6903F08053002BF4
:100C3C000DD1884BDB69874A43F08053D361854BD8
:100C4C00DB6903F08053BB60BB680123FB75824BEF
:100C5C001B6803F48073002B18D17F4B1B687E4AF2
:100C6C0043F480731360FFF7F9FB386108E0FFF77A
:100C7C00F5FB02463B69D31A642B01D9032303E12C
:100C8C00754B1B6803F48073002BF0D07B68DB681A
:100C9C00012B06D16F4B1B6A6E4A43F001031362A2
:100CAC002DE07B68DB68002B0CD16A4B1B6A694A10
:100CBC0023F001031362674B1B6A664A23F004039B
:100CCC0013621CE07B68DB68052B0CD1614B1B6A43
:100CDC00604A43F0040313625E4B1B6A5D4A43F0A7
:100CEC00010313620BE05B4B1B6A5A4A23F00103AE
:100CFC001362584B1B6A574A23F0040313627B6838
:100D0C00DB68002B15D0FFF7A9FB38610AE0FFF771
:100D1C00A5FB02463B69D31A41F28832934201D9B2
:100D2C000323B1E04B4B1B6A03F00203002BEED004
:100D3C0014E0FFF793FB38610AE0FFF78FFB0246E4
:100D4C003B69D31A41F28832934201D903239BE0C9
:100D5C00404B1B6A03F00203002BEED1FB7D012BF1
:100D6C0005D13C4BDB693B4A23F08053D3617B6854
:100D7C00DB69002B00F08780364B5B6803F00C03BB
:100D8C00082B61D07B68DB69022B46D1334B0022E8
:100D9C001A60FFF763FB386108E0FFF75FFB024660
:100DAC003B69D31A022B01D903236DE0294B1B6835
:100DBC0003F00073002BF0D17B681B6AB3F5803F06
:100DCC0008D1244B5B6823F400327B689B68214973
:100DDC0013434B601F4B5B6823F474127B68196AD6
:100DEC007B685B6A0B431B4913434B601B4B012213
:100DFC001A60FFF733FB386108E0FFF72FFB024660
:100E0C003B69D31A022B01D903233DE0114B1B681C
:100E1C0003F00073002BF0D035E0104B00221A6069
:100E2C00FFF71CFB386108E0FFF718FB02463B6933
:100E3C00D31A022B01D9032326E0064B1B6803F0BF
:100E4C000073002BF0D11EE07B68DB69012B07D10E
:100E5C00012319E000100240007000406000424283
:100E6C000B4B5B68FB60FB6803F480327B681B6A8E
:100E7C009A4206D1FB6803F470127B685B6A9A4253
:100E8C0001D0012300E0002318461837BD4680BD71
:100E9C000010024080B584B000AF786039607B6888
:100EAC00002B01D10123D0E06A4B1B6803F0070330
:100EBC003A689A4210D9674B1B6823F007026549C0
:100ECC003B6813430B60634B1B6803F007033A68E2
:100EDC009A4201D00123B8E07B681B6803F002033F
:100EEC00002B20D07B681B6803F00403002B05D07B
:100EFC00594B5B68584A43F4E06353607B681B684A
:100F0C0003F00803002B05D0534B5B68524A43F4A3
:100F1C0060535360504B5B6823F0F0027B689B6816
:100F2C004D4913434B607B681B6803F00103002B96
:100F3C0040D07B685B68012B07D1474B1B6803F4DF
:100F4C000033002B15D101237FE07B685B68022BFB
:100F5C0007D1414B1B6803F00073002B09D101230F
:100F6C0073E03D4B1B6803F00203002B01D10123FE
:100F7C006BE0394B5B6823F003027B685B68364996
:100F8C0013434B60FFF76AFAF8600AE0FFF766FA62
:100F9C000246FB68D31A41F28832934201D90323EB
:100FAC0053E02D4B5B6803F00C027B685B689B0085
:100FBC009A42EBD1274B1B6803F007033A689A421D
:100FCC0010D2244B1B6823F0070222493B681343C1
:100FDC000B60204B1B6803F007033A689A4201D060
:100FEC00012332E07B681B6803F00403002B08D05C
:100FFC00194B5B6823F4E0627B68DB68164913438A
:10100C004B607B681B6803F00803002B09D0124B64
:10101C005B6823F460527B681B69DB000E49134349
:10102C004B6000F021F802460B4B5B681B0903F088
:10103C000F030A49CB5C22FA03F3094A1360094BEC
:10104C001B681846FFF7C8F9002318461037BD4631
:10105C0080BD00BF0020024000100240EC110008CF
:10106C00080000200C00002090B48AB000AF294B7F
:10107C003C1D0FCB84E80F0040F201233B80002382
:10108C00FB610023BB6100237B6200237B61002397
:10109C003B62214B5B68FB61FB6903F00C03042B87
:1010AC0002D0082B03D02BE01C4B3B622BE0FB69DE
:1010BC009B0C03F00F0328333B4413F8243C7B6157
:1010CC00FB6903F48033002B12D0134B5B685B0C71
:1010DC0003F0010328333B4413F8283CBB617B69C4
:1010EC000E4A03FB02F2BB69B2FBF3F37B6204E032
:1010FC007B690B4A02FB03F37B627B6A3B6202E077
:10110C00064B3B6200BF3B6A18462837BD4690BC75
:10111C00704700BFDC1100080010024000127A007A
:10112C0000093D0080B485B000AF78600A4B1B68A5
:10113C000A4AA2FB03235B0A7A6802FB03F3FB60F7
:10114C0000BFFB685A1EFA60002BF9D100BF00BF2C
:10115C001437BD4680BC704708000020D34D621088
:10116C0070B500260C4D0D4C641BA410A64209D181
:10117C0000F022F800260A4D0A4C641BA410A6426B
:10118C0005D170BD55F8043B98470136EEE755F88C
:10119C00043B98470136F2E7FC110008FC110008EB
:1011AC00FC1100080012000803460244934200D1CF
:1011BC00704703F8011BF9E7F8B500BFF8BC08BC91
:1011CC009E467047F8B500BFF8BC08BC9E467047F9
:1011DC0002030405060708090A0B0C0D0E0F10106C
:1011EC0000000000000000000102030406070809CB
:0411FC0031010008B5
:041200000D010008D4
:101204005B0000004F0000000024F4001000000008
:0412140001000000D5
:040000050800036D7F
:00000001FF
